:020000040000FA
:20000000020643C2AFF50841F9FFFFC2AFF508610BFFFFC2AFF508611DFFFFC2AFF508615E
:200020002FFFFFC2AFF5086141FFFFC2AFF5086153FFFFC2AFF5086165FFFFC2AFF5086164
:2000400077FFFFC2AFF5086189FFFFC2AFF508619BFFFFC2AFF50861ADFFFFC2AFF5086124
:20006000BFFFFFC2AFF50861D1FFFFC2AFF50861E3FFFFC2AFF50861F5FFFFC2AFF50881C4
:2000800007FFFFC2AFF5088119FFFFC2AFF508812BFFFFFF758701002274F312052DE9FE8D
:2000A000750A00750B08780A1206327C807D017A007B0012044174021205EE8E0C9001867B
:2000C000E0F50AA3E0F50B7409780A120652E50AFF9001867409780A12061FE0C3F50EA3D1
:2000E000E0950BF50F7402780E12061F850E0A850F0BEE2FFF7401650C7004744D2FFF5355
:20010000B4F375BC0075BC008042748028F582740139F583E0F5BDE82401FAE439FBEAF8C8
:20012000EBF9C3940840290E74086E70027E55750E00750F08780E1206327C807D017A0003
:200140007B00EEF912044174021205EE78007900E50C6E700AE84970067A047B0080BFEFD3
:200160006E70A7E50A687003E50B69709DA8BDE8F9E5BCFAE9FB7F0602059374FC12060955
:20018000750A04750B00780A12063274021206787A007B00790812044174021205EE85219C
:2001A00082852283E0F47003A3E0F4602D852182852283E0F8A3E0F9E849601E7402120665
:2001C0006EE0687003A3E0697010750901024030C2AF75C9AB75C95B80FE780A12063274E8
:2001E000021206787A007B00790112044174021205EE852182852283E0F47003A3E0F470AC
:20020000030202E9852182852283E0F8A3E0F9E84970030202E9740212066EE0F8A3E0F967
:20022000852182852283E0687003A3E0697010750900020830C2AF75C9AB75C95B80FE74A8
:20024000FF68700374FF6960030202E953BEFBE59DA2E650FAE5C654804449F5C6E59E549A
:200260007F644970F853C67FE59EA2E740FA53C680E59E547F70FA43BE049062707408F0E0
:200280007409F5D575D48079011200998A0A8B0BA80AA90B852182852283E0687003A3E009
:2002A000697046852182852283E0F8A3E0F9740212066EE8F0A3E9F085218285228374FF64
:2002C000F0A3F0750A01750B00780A12063274021206787A007B021204C774021205EEC2B8
:2002E000AF75C9AB75C95B80FE43BE03120094C2AF75C9AB75C95B80FEE5096007E508D220
:20030000AF024033E508D2AF020833E5096007E508D2AF02403BE508D2AF02083BE50960CD
:2003200007E508D2AF024043E508D2AF020843E5096007E508D2AF02404BE508D2AF020840
:200340004BE5096007E508D2AF024053E508D2AF020853E5096007E508D2AF02405BE508E2
:20036000D2AF02085BE5096007E508D2AF024063E508D2AF020863E5096007E508D2AF028F
:20038000406BE508D2AF02086BE5096007E508D2AF024073E508D2AF020873E5096007E532
:2003A00008D2AF02407BE508D2AF02087BE5096007E508D2AF024083E508D2AF020883E59C
:2003C000096007E508D2AF02408BE508D2AF02088BE5096007E508D2AF024093E508D2AF69
:2003E000020893E5096007E508D2AF02409BE508D2AF02089BE5096007E508D2AF0240A305
:20040000E508D2AF0208A3E5096007E508D2AF0240ABE508D2AF0208ABE5096007E508D2DA
:20042000AF0240B3E508D2AF0208B3E5096007E508D2AF0240BBE508D2AF0208BB000204F4
:200440003D74F612052D890C740F550CF50A750B00740B780A12061FEA2400F8EB3480F9E3
:20046000E82400E9350BF985C70BA2AFE433F50AC2AFE50CC4540FFAE5C754F84AF5C7749B
:200480000A12066EE0FEA3E0FFEE4F602CEEFAEFFB88828983E08C828D83F088828983A314
:2004A000A882A9838C828D83A3AC82AD83EA24FF1AEB34FFFBEA4B70D8850BC7E50AA2E042
:2004C00092AF7F0302059374F712052DED900980F0ECA3F0A37462F0A37473F0A3E0541FC2
:2004E000F0740912066EE0F50AA3E0F50BE50A333354FC900985F07406780A120652E50A9F
:20050000900984F09009867412F0A37442F075D11E75D601EA906271F0EBA3F0906270E043
:20052000D2E1F0E0A2E740FB7F020205932521C582C0E0E52234FFC583C0E0E521C395822A
:2005400024F910AF088583228582218008858322858221D2AFCEF0A3E520F0A3780AE608A1
:20056000F0A3DEFAEFF0A3E58124FBF8E608F0A3E608F0A30808E608F0A3E608F0A3158167
:200580001581D0E0FED0E0F815811581E8C0E0EEC0E022852283852182E0A3FEE0A3F520A0
:2005A000780AE0A3F608DFFAE0A3FFE0A3C0E0E0A3C0E0E0A3C0E0E0A3C0E010AF08858283
:2005C000218583228008858221858322D2AFD083D082222521F58210AF08F521400C152291
:2005E0008008F52140021522D2AF8522832200C0D0252110AF08F521500C05228008F52143
:2006000050020522D2AFD0D022252110AF08F521400C15228008F52140021522D2AF22704E
:200620000422600D18C6C333C608C633C6D5E0F4182274028000C0E0F4041205D3D0E012A9
:2006400006612275D00075813F752180752201020680600C08C6C313C618C613C6D5E0F42B
:2006600022CAC0E0E6F0A308DAFAD0E0FA222521F582E43522F583222521FCE43522FD229F
:2006800012017B12068600000080FBFFFFFFFFFFFFFFFFFFFFFFFFFFFFFFFFFFFFFFFFFFC8
:2006A000FFFFFFFFFFFFFFFFFFFFFFFFFFFFFFFFFFFFFFFFFFFFFFFFFFFFFFFFFFFFFFFF5A
:2006C000FFFFFFFFFFFFFFFFFFFFFFFFFFFFFFFFFFFFFFFFFFFFFFFFFFFFFFFFFFFFFFFF3A
:2006E000FFFFFFFFFFFFFFFFFFFFFFFFFFFFFFFFFFFFFFFFFFFFFFFFFFFFFFFFFFFFFFFF1A
:20070000FFFFFFFFFFFFFFFFFFFFFFFFFFFFFFFFFFFFFFFFFFFFFFFFFFFFFFFFFFFFFFFFF9
:20072000FFFFFFFFFFFFFFFFFFFFFFFFFFFFFFFFFFFFFFFFFFFFFFFFFFFFFFFFFFFFFFFFD9
:20074000FFFFFFFFFFFFFFFFFFFFFFFFFFFFFFFFFFFFFFFFFFFFFFFFFFFFFFFFFFFFFFFFB9
:20076000FFFFFFFFFFFFFFFFFFFFFFFFFFFFFFFFFFFFFFFFFFFFFFFFFFFFFFFFFFFFFFFF99
:20078000FFFFFFFFFFFFFFFFFFFFFFFFFFFFFFFFFFFFFFFFFFFFFFFFFFFFFFFFFFFFFFFF79
:2007A000FFFFFFFFFFFFFFFFFFFFFFFFFFFFFFFFFFFFFFFFFFFFFFFFFFFFFFFFFFFFFFFF59
:2007C000FFFFFFFFFFFFFFFFFFFFFFFFFFFFFFFFFFFFFFFFFFFFFFFFFFFFFFFFFFFFFFFF39
:2007E000FFFFFFFFFFFFFFFFFFFFFFFFFFFFFFFFFFFFFFFFFFFFFFFFFFFFFFFFFFFFFFFF19
:20080000CE73FFFF0000005E41414141FFFFFFFFFFFFFFFFFFFFFFFFFFFFFFFFFFFFFFFF4B
:20082000000102030405060708090A0BFFFFFFFF020AF90218A1FFFFFFFFFFFFFFFFFFFFC4
:20084000FFFFFFFFFFFFFFFFFFFFFFFFFFFFFFFFFFFFFFFFFFFFFFFFFFFFFF021FC5FFFFCF
:20086000FFFFFFFFFFFFFFFFFFFFFFFFFFFFFFFFFFFFFFFFFFFFFFFFFFFFFFFFFFFFFFFF98
:20088000FFFFFF021917FFFFFFFFFFFFFFFFFFFFFFFFFFFFFFFFFFFFFFFFFF021F9CFFFF83
:2008A000FFFFFFFFFFFFFFFFFFFFFFFFFFFFFFFFFFFFFF0216F701FF0000B4000028002838
:2008C00000283075A000A000A000A00000080008E001F0001000100010001000100010008A
:2008E00050005000500010001000D0070000000000000F000100050030750700100001003F
:2009000081FF00000000FFFFFFE6210422EC212222FF02020208025000A0000000E80302F0
:20092000AFA9010000A2A902B9A90100009E1402A5A9010000BE0202B9A90100009F1402D1
:20094000F6A8010000D40202B9A9010000A01402ABA9010000D60202B9A9010000A11402BE
:20096000B1A9080000D70202B9A9010000A21402B7A9010000A314FF0100FF2002AFA9018D
:2009800000009CA902B9A9010000071502BBA9000000000002A7A903000005031700282867
:2009A000282828282828282828282828282828282828282828282828B02AC22AAA2A1C02BF
:2009C000AFA90100009FA902B9A90100004A151050A80200006F0702A7A903000071070263
:2009E000A9A9010000DFA802B9A90100004A151060A8020000700702A7A9030000730702F7
:200A0000A9A9010000ECA8FFFFFFFFFF000130750302010600000000000000000000000042
:200A200000000000000000000000000000000000FFFF0600800CE80307094F41442046579A
:200A4000051250002003020A000201054F4144204657000000000000000000000000000067
:200A600000FE2D0000E5C754F84405F5C779012200000080FB120A65B90003020AE3E479AE
:200A8000217808B800028004F709D8FCE479297802B800028004F709D8FCE490028078C45F
:200AA00079128002F0A3D8FCD9FA781C9008B67A01BA00028007E493A3F608DAF97A437B2C
:200AC000149008B778AF79028015E493A3AD82AE838A828B83F0A3AA82AB838D828E83D803
:200AE000E9D9E77582C97583E47407120B0B75827075830A7400120B0B75D00075813F751A
:200B00001A80751B02759F00020A75C09FF59FE473D09F22D083D082C09FE493C0E07401A9
:200B200093C0E0740293F59F22E066701008A3E066700A08A3E066700408A3E06622C3E770
:200B4000960809E7960809E7960809E79622C3E09608A3E09608A3E09608A3E09622C00AAB
:200B6000C3E096F50A08A3E096420A08A3E096420A08A3E096450A7001D3D00A220808089B
:200B8000EAC0E0EBC0E086F0E7A4FA180986F0E7A42AFA180986F0E7A42AFA180986F0E73B
:200BA000A42AFA1986F0E7A4FBE5F02AFA190886F0E7A42BFBE5F03AFA190886F0E7A42BC1
:200BC000FBE5F03AFA18180986F0E7A4C5F02BFBE43AFA1908E7C5F0C6A426F6E5F03BFB96
:200BE000E43AFA1886F0E7A4F6E5F00826F6E43B08F6E43A08F6D0E0FBD0E0FA22E4CFC0B2
:200C0000E0E4CEC0E0E4CDC0E0E4CCC0E075F020E626F608E633F608E633F608E633F6181D
:200C20001818EC33FCED33FDEE33FEEF33FFC3EC9709ED9709EE9709EF97191919400FFF83
:200C4000EC97FC09ED97FD09EE97FE191906D5F0BFECF709EDF709EEF709EFF7191919D07B
:200C6000E0FCD0E0FDD0E0FED0E0FF226016080808C6C313C618C613C618C613C618C6131D
:200C8000C6D5E0EA227009080808226016181818C6C333C608C633C608C633C608C633C685
:200CA000D5E0EA22E627F60809E637F60809E637F60809E637F622E026F608A3E036F60827
:200CC000A3E036F608A3E036F622E026F008A3E036F008A3E036F008A3E036F022C3E69721
:200CE000F60809E697F60809E697F60809E697F622C3E096F008A3E096F008A3E096F008FD
:200D0000A3E096F022E056F608A3E056F608A3E056F608A3E056F622E056F008A3E056F0DE
:200D200008A3E056F008A3E056F022E0F608A3E0F608A3E0F608A3E0F622E6F008A3E6F01D
:200D400008A3E6F008A3E6F022E0FAA3E0FBA3E0FCA3E0FD22E0F8A3E0F9A3E0FAA3E0FBA7
:200D600022E8F0A3E9F0A3EAF0A3EBF022CAC0E0E6F0A308DAFAD0E0FA22CAC0E0E0A3C5A3
:200D800082CCC582C583CDC583F0A3C582CCC582C583CDC583DAE6D0E0CA22C3E498F8E4A0
:200DA00099F9120DDC8026C3E49AFAE49BFBE920E7E9120DDCE498F8E499F922C3E498F834
:200DC000E499F9120DDCE498F8E499F9C3E49AFAE49BFB22EB20E7CFE920E7E0B90010BBCC
:200DE0000008E88AF084F8AAF022E4FBC8FA22EB70227B10C833C8C933C9335007C39AC354
:200E0000DBF280069A50012ADBEAC833F4C8C933F4C9FA2275F008E4C833C8C933C933C944
:200E20009AC99B5004C92AC93BD5F0ECFBC833F4C8E4C9FA22600D08C6A2E713C618C613AF
:200E4000C6D5E0F322600C08C6C313C618C613C6D5E0F422700422600D18C6C333C608C63F
:200E600033C6D5E0F41822251A10AF08F51A400C151B8008F51A4002151BD2AF2200C0D0C9
:200E8000251A10AF08F51A500C051B8008F51A5002051BD2AFD0D022251AF58210AF08F503
:200EA0001A400C151B8008F51A4002151BD2AF851B8322251AF582E4351BF58322251AF812
:200EC000E4351BF922251AFAE4351BFB22251AFCE4351BFD22E473251AC582C0E0E51B34FA
:200EE000FFC583C0E0E51AC3958224F810AF0885831B85821A800885831B85821AD2AFCEF0
:200F0000F0A3E520F0A3780AE608F0A3DEFAEFF0A3E58124FAF8E608F0A3E608F0A3E608DD
:200F2000F0A30808E608F0A3E608F0A315811581D0E0FED0E0F8158115811581E8C0E0EE52
:200F4000C0E022251AC582C0E0E51B34FFC583C0E0E51AC3958224F910AF0885831B8582A7
:200F60001A800885831B85821AD2AFCEF0A3E520F0A3780AE608F0A3DEFAEFF0A3E581242A
:200F8000FBF8E608F0A3E608F0A30808E608F0A3E608F0A315811581D0E0FED0E0F8158132
:200FA0001581E8C0E0EEC0E022851B83851A82E0A3FEE0A3F520780AE0A3F608DFFAE0A3A7
:200FC000FFE0A3C0E0E0A3C0E0E0A3C0E0E0A3C0E0E0A3C0E010AF0885821A85831B8008D0
:200FE00085821A85831BD2AFD083D082020B11851B83851A82E0A3FEE0A3F520780AE0A307
:20100000F608DFFAE0A3FFE0A3C0E0E0A3C0E0E0A3C0E0E0A3C0E010AF0885821A85831BE0
:20102000800885821A85831BD2AFD083D08222C0D0251AC582C0E0E51B34FFC583C0E0E5E6
:201040001AC3958224F310AF0885831B85821A800885831B85821AD2AFC8F0A3E9F0A3EA6C
:20106000F0A3EBF0A3790AE709F0A3D8FAECF0A3EDF0A3EEF0A3EFF0A3D0E0F0A3D0E0F0A2
:20108000A3D0E0F0A3E520F0A3E5F0F0A322851B83851A82E0C0E0A3E0F9A3E0FAA3E0FB0D
:2010A000A3780AE0F608A3DFFAE0FCA3E0FDA3E0FEA3E0FFA3E0C0E0A3E0C0E0A3E0F5D0C4
:2010C000A3E0F520A3E0A3F5F010AF0885831B85821A800885831B85821AD2AFD082D08370
:2010E000D0E0F8D0E03274048006740280027401C0E0F404120E98D0E0120D6D2274048055
:201100000474028000CCC0E0EDC0E0E51AC39CCCAD1B50011D10AF068C1A8D1B80068C1A3D
:201120008D1BD2AF120D7AD0E0FDD0E0FC22D083D082E9C0E0E493A3C386F0C5F095F0F9BE
:2011400008E493A386F0C5F095F0700BE493A3C3994005E9048002A3E475F002A42582F5EA
:2011600082E5F03583F583D0E0F9E493A3C0E0E493C0E022D083D082ECC0E0EDC0E0E49317
:20118000A3FCE493A3FDED4C600D1211C0EC24FFFCED34FFFD80EFE493A3FCE493A3FDED5F
:2011A0004C600D1211FFEC24FFFCED34FFFD80EFD0E0FDD0E0FCE493A3C0E0E493C0E02271
:2011C000C0E0C3E49396087401939618400FE49366700808740193661870007019A3A3C3AD
:2011E000E49396087401939618A3A3400DD0E0D0E0D0E00211B0A3A3A3A3A3A3D0E022C05A
:20120000E0C0F088F0E4936670080874019366187000A8F0A3A3700BD0F0D0E0D0E0D0E04A
:201220000211B0A3A3D0F0D0E022FFFF74F6120F43EAFEEBFF8C0A8D0BEE2434F8E43FF9ED
:20124000E8FCE9FDEE243512153FFAEE243712153FF8850AF0A4C885F00C850BF0A4250CB5
:20126000F9EA28F8E439F97A257B00120DDCEA8C828D83F0FA131313541FF8EE28F8E43F79
:20128000F9E8245DF582E439F583E0C0E074075AF8D0E0B800028004C313D8FCA2E0EE503B
:2012A000082434F582E43F8018243612153FF5F0EA84A8F0EE28F8E43FF9E82438F582E428
:2012C00039F583E0F97F03020FEF74F7120F43EAFEEBFFEE243412153FC0E0EE2435F58257
:2012E000E43FF583D0E0F08E828F83A3A3A3A3A3A3A3C082C0838E828F83A3A3A3A3A3E066
:20130000F8A3E0F9D083D082E0C398F50AA3E099F50BEE247F12153F6401703EEE2480F5CD
:2013200082E43FF583C082C0838E828F83A3A3A3A3A3E0240108A3E03400F9D083D082E078
:20134000687003A3E06970127CB07D0412276EEE247FF582E43FF583E4F0AC0AAD0BEEFA23
:20136000EFFB12122CE9F9121F8E7F02020FEFC082C083851A82851B83E0F8A3E0F9C3EA47
:201380009CEB9D5010C3EC98ED99401BC3EA98EB995014800EC3EA98EB994007C3EC98EDA2
:2013A000994004790180027900D083D08222EAC39CFAEB9DFB2274EF120F43900375E06419
:2013C000086005E06407702A9061C8E060249003A3E0F4601DE0F875F00BA4C8AAF02AF9A6
:2013E00074A528FE740339FF8E828F83A3A3A3E070030214C4906060E0C0E0EE2468F58206
:20140000E43FF583D0E0F0750E20750F05750A00750B00E5D914F50CE5D95403F510601207
:20142000740365106043E50C600AEE246712153F7002807590051BE06401601F12153C6045
:20144000047A0480027A00E50CC39AFA95E0FB1226308A0A8B0BEA450B700512299C80645A
:2014600012153C70048A0E8B0FE50C6012850E82850F83F50DE5D9F0A3150DE50D70F612F5
:20148000153C604474FC250CF50C780E1210EAAC0CA910EEFAEFFB1228227402120E7DE988
:2014A0007026AA0AAB0B122D0E793D8E828F83A3A3A3A3E0FA7B001224A4EEFAEFFB122741
:2014C0008C1228347900806F740365106051850C1275130078121210EAAC0EAD0FAA0AAB77
:2014E0000B1227E67402120E7DEE246812153F64807004747F8001E0F50E780E1210EEE5A5
:2015000010F50E780E1210EEA90CAC0AAD0B9003A3E0FA7B0012247A7402120E7D8013908E
:201520000375E06408600BAC0EAD0FEEFAEFFB1228AC1229A879017F0A020FEFEE2483F5DE
:2015400082E43FF583E02274F2120F4374FC120E67EAFEEBFF890BA2AFE433F50AC2AF026B
:201560001611E0601B780E1210EAAC0DA910EEFAEFFB12281C7402120E7D7404250DF50DFE
:201580007401250DF5D98510D9E50D6018F50C850E82850F83E0F5D9A385820E85830F153F
:2015A0000CE50C70EA75E195EE2463F8E43FF97A007B00A2AFE433F50DC2AF88828983E09A
:2015C000FCA3E0FDEC4D603A88828983E0FAA3E0FB8A828B83E0FCA3E0FD88828983ECF0E6
:2015E000A3EDF08A828B83E4F0A3F088828983E0FCA3E0FDEC4D700A88828983A3A3E4F095
:20160000A3F0E50DA2E092AF122D0E9004B7E004F0EE246312153FF8A3E0F9E8496064EEE4
:20162000246312153F2402F8A3E03400F988828983E5822402F50EE43583F50FE0F50DA324
:20164000E0F510EE246212153F640170369061D0E0F812153C60047C0480027C007480C32B
:2016600098FA95E0FBE50D2CF8E43400F9E82402F8500109C3EA98EB99A2D265D0334003F9
:201680000215629004B7E0604D9004B8E0F89004B7E0C398500C7402650B703A9004B9E036
:2016A00060348E828F83A3A3A3A3E0851A82851B831216E67402120EB3E81216E69004B62D
:2016C000E028F07402120ECDAA1AAB1B79011224CE9004B7E4F0E50AA2E092AF7404120E3E
:2016E0007D7F07020FEFF0A3E4F09004B7E0F8228521878522C622C0E074EB12102FA2AFDE
:20170000E433F50AC2AF759B00906182E0A2E05030E591A2E0502A7591FE740165217021DB
:2017200012188A1228FA1218781210FD121D387404120E7DE96401700579011229421213A5
:20174000B6906182E0A2E5505DE591A2E550577591DF900375E064076005E06408702F120E
:20176000188A74016521703E1228FA1218781210FD121D387404120E7DE964017005790170
:201780001229427901EEFAEFFB1215478018E0640D7013900397E004F064287002E4F07A5C
:2017A00000E0F91229AE906182E0A2E6400302184DE591A2E6400302184D7591BF9003756D
:2017C000E0640570081228E21228EE80031228E875210012294EE9900376F0790012294268
:2017E0001226E47A017B00900374E0F9122CDE907803E06442705690051FE014F0704EC26C
:20180000AF12180400782AD0E0F618D0E0F6E59F5407F87005750FFF8003750F7FC4C0E02C
:201820007829E6F50C08E6550FF50D740B780C120E45D0E0250CF8906270E0A2E740F8E8A0
:20184000C333906272F0906270E0D2E0F0906181E0A2E35009E5E9A2E3500375E9F7A3E0AC
:20186000A2E75009E591A2E7500375917FE50AA2E092AF7F0802108E8E828F83E0F8A3E059
:20188000C82416F582E438F583229003A3E0F875F00BA4C8AAF02AF974A528FE740339FF84
:2018A00022C0E0C0D0C082C083906183E0A2E05009E5BFA2E0500375BFFEE0A2E15009E5D6
:2018C000BFA2E1500375BFFDE0A2E25009E5BFA2E2500375BFFBE0A2E35009E5BFA2E350A4
:2018E0000375BFF7E0A2E45009E5BFA2E4500375BFEFE0A2E55009E5BFA2E5500375BFDF0A
:20190000E0A2E65009E5BFA2E6500375BFBFD083D082D0D0D0E032C0E074F212102FE5A78A
:20192000A2E6500FE5A1A2E6500953A7BF75A1BF12196BE5A7A2E5500CE5A1A2E550065310
:20194000A7DF75A1DFE5A7A2E15009E5A1A2E1500375A1FDE5A7A2E2500CE5A1A2E2500669
:2019600053A7FB75A1FB7F0102108E74F7120F43752101900375E0640670151228588A8266
:201980008B83A3A3A3A3A3A3E0FAA3E0FB1228D0A2AFE433FED2AF90037BE0640170187AC9
:2019A000207B00900374E0F9122D9E7A207B00900374E0F9122CE4906182E0D2E6F0900528
:2019C0001CE0602185C622801690037AE064017008E5C654F84405F5C653BEFC1216F07429
:2019E00001652160E4EEA2E092AF7F02020FEFFF8E238F24858228858327851A82851B83E5
:201A0000E0CEA3E0CF852882852783EBC9EAC8EDCBECCA75F010C3E833C8E933C9EA33CAAD
:201A2000EB33CBC3EA9EF526EB9FF525B35004AB25AA26EC33CCED33CDD5F0DAAE23AF24F1
:201A40002274E9120F4374FA120E67EAFEEBFF8C0C8D0D122906EAF8EBF9ECFAEDFB8E82C5
:201A60008F83120D61900375E024F7C394055006751601021BA81228588A0A8B0BEA450BD8
:201A80007003021BA5EEFCEFFDAA1AAB1B122900850A82850B83A3A3780E120D2B90A958AB
:201AA000780E120D05851A82851B837812120D2B90A9587812120D05780E7912120B3E5069
:201AC0001F780E7912120CDD90A948780E120B5E4047850E16850F1785101885111980455D
:201AE00090A9488512168513178514188515197816790E120CDD7816120B5E501C75160095
:201B000075170075180075190178167912120CDD7816790E120CA4800C7516017517007519
:201B2000180075190074097816120C8590A990780E120D2B7816790E120BFD850A82850BE8
:201B400083A3A3A3A3A3A3121BC6120DDC880E890FE4F510F5117816790E120CA4740412C4
:201B60000EB3121BC6120DDCE8FA8A0EE4F50F7816790E120B3E50077816790E120CDD90ED
:201B80000375E06408600AE064066005E06405702090A94C7816120B5E501690A950781684
:201BA000120CB7800C751600751700751800751900850C82850D837816120D3A7406120EE9
:201BC0007D7F10020FEFE0F8A3E0F97AD07B032274F7120F4312291890051AE06401701025
:201BE000906245E4F0A3F053F4F343FE0C5390F31228BEE5C654B84441F5C6E59E54476479
:201C00004170F8906185740FF0900518E0F47002A3E0604E900519E0600814601B14602EE7
:201C20008040750A01750B00900518E0780A120E54E50AF45280802A750A01750B0090056D
:201C400018E0780A120E54E50AF452908014750A01750B00900518E0780A120E54E50AF4D7
:201C600052A079007F02020FEF74F7120F43E9FEEAFF12291874016E700C7A807B0090031F
:201C800074E0F9122CDE902E14E493F46008E493F91226D8800953C6B8E59E544770FA12C2
:201CA00028C490051AE0640170031226F6900518E0F47002A3E0604B900519E06008146018
:201CC0001A14602C803D750A01750B00900518E0780A120E54E50A42808028750A01750BB1
:201CE00000900518E0780A120E54E50A42908013750A01750B00900518E0780A120E54E5A5
:201D00000A42A01228588A0A8B0BA80AA90BE8496014E5E170FCE82414F582E439F583E0D2
:201D2000F46003E0F5E174016F700A7A01900374E0F9122D68021C6474F1120F438A0A8BCC
:201D40000B8C0C8D0D90A958780A120D05740F120EB3780E120D2B90A958780E120D057836
:201D60000A790E120B3E90A9485010780A790E120CDD780A120B5E4014800E780E790A1298
:201D80000CDD780E120B5E50047901800279007F08020FEF74ED120F438A0A8B0B8C0C8DF5
:201DA0000D90A958780A120D057413120EB3780E120D2B90A958780E120D05780E790A125F
:201DC0000B3E4011780A790E120CDDAA0AAB0BAC0CAD0D80227512007513007514007515C5
:201DE000017812790E120CDD7812790A120CA4AA12AB13AC14AD157F0C020FEF90A9587877
:201E00000A120D2B8A828B83780A120D187F04020FEF74F5120F438C828D83780A120D2B61
:201E20008A828B83780A120CF1121E6AC3E09CF0A3E09D121E5C402290A998780A120D2B83
:201E40008A828B83780A120CCA8A828B83A3A3A3A3E02420F0A3E0344EF080A0F0888289AC
:201E600083C3E09420A3E0944E22EA2404F8E43BF98C828D83A3A3A3A3E0FCA3E0FD8882CF
:201E800089832274F5120F43E9FE9004D2E0FAA3E0FBEE29F8E433F9749F28F58274A8397C
:201EA000F583E02AF50AA3E03BF50B780A1210EA90A954120D491219F07402120E7D8A0A9E
:201EC0008B0B8C0C8D0D7410780A120C6CAA0AAB0B7F04020FEF74F1120F438A0E8B0F8C36
:201EE000108D117411120EB31211017411120EB3E02401F50AA3E03400F50BE4F50CF50DBE
:201F0000780E790A120B7D90A95C780A120D2B780E790A120B7DAA0EAB0FAC10AD11121903
:201F2000F07402120E7D8B0BEA450B60047A0180027A00EC2AFCE43DFD7413120EB3E0F891
:201F4000A3E0F9E8FEE9FFECF8EDF97A717B02120DDC880A890BE4F50CF50D8E828F837863
:201F60000A120D3AECF8EDF97A717B02120DDC8A0A8B0B7405780A120E548E828F83A3A3D0
:201F8000A3A3E50AF0A3E50BF07F08020FEFC082C083E9906000F0D083D08222C0E074F2F7
:201FA00012102FA2AFE433FED2AFE589A2E15003122C06758900C2C5751C00EEA2E092AF9A
:201FC0007F0102108EC0E0C0D0E8C0E0E9C0E0A9A8D2AFC2C7751C00E9A2E7E433F8E9A2A8
:201FE000E792AFD0E0F9D0E0F8D0D0D0E032C2AF02000022120B148CC707120B149FC70728
:20200000120B14D0C707120B140AC807120B1463C807120B14AAC807120B14F2C807120BCB
:202020001421C907120B1450C907120B1487C907120B14CEC907120B14E7C907120B143C9E
:20204000CA07120B1455CA07120B14A3CA07120B1441F506120B1444F606120B147DF6062B
:20206000120B14A0F606120B14B2F606120B14F0F606120B146CF706120B1434F806120B7D
:202080001456F806120B14EDF806120B143FF906120B1470F906120B147DF906120B14E7E8
:2020A000F906120B143EFA06120B1441FA06120B147AFA06120B147DFA06120B1487FA062F
:2020C000120B14DBFA06120B141CFB06120B144FFB06120B148CFB06120B148EFC06120B89
:2020E0001432FD06120B149BFD06120B14D9FD06120B14FCBB07120B1424BC07120B145132
:20210000BC07120B1489BC07120B14E7BC07120B1433BD07120B149ABD07120B14DABD071E
:20212000120B1417BE07120B1445BE07120B14EFBE07120B14F9BE07120B1406BF07120B69
:202140001439BF07120B1445BF07120B145DBF07120B1467BF07120B145EE207120B14765F
:20216000E207120B148DE207120B14D29B06120B14939C06120B145F9D06120B14ED9E06D0
:20218000120B145E9F06120B1418A006120B140AA106120B144AA106120B14FEA106120B25
:2021A000142CA206120B1422A406120B1464A406120B1482A406120B14E8A406120B14B7F3
:2021C000A506120B147BA606120B149AA806120B14658F07120B144F9007120B14FA90077E
:2021E000120B144B9107120B14FB9107120B146C9207120B14519307120B14859307120B48
:20220000147E9407120B14BB9407120B14979507120B14D69507120B14F29507120B1447CC
:20222000DC07120B1472DC07120B148CDD07120B14F5BF07120B140BC007120B1429C00784
:20224000120B143AC107120B1444C107120B146FC207120B1466C307120B14D3C307120B59
:2022600014539607120B14899707120B14C09707120B14179807120B142C9A07120B141845
:202280002E00120B14A42E00120B14083000120B14143000120B144F3000120B14C330005B
:2022A000120B14CC3100120B14933200120B14F03300120B140E3400120B14313400120B80
:2022C00014AE3400120B14D63400120B14A03700120B14A53700120B14BE3900120B140C53
:2022E0003A00120B147C3A00120B14BA3A00120B14963B00120B14563C00120B14A23C00C4
:20230000120B14A53C00120B14E93C00120B14313D00120B14703D00120B14923D00120BBB
:2023200014CE3D00120B1466A107120B1474A107120B14C7A107120B14E6A107120B142B37
:20234000A207120B146FA307120B140AA407120B1434A407120B14A3A407120B14E9A40750
:20236000120B1460A507120B1411A607120B14C5A905120B1466AA05120B14C2AA05120B88
:20238000147FAB05120B149BAC05120B14CDAC05120B14FCAC05120B14A9AE05120B142012
:2023A000B105120B1490B305120B1482B405120B147BB505120B1482B705120B1476BA0547
:2023C000120B14A5BB05120B14A9BD05120B14B9BE05120B1448C005120B1439C105120B93
:2023E0001487C105120B14F6C105120B141AC205120B146BC205120B140CC705120B141BC5
:20240000C805120B14E1C805120B14EBB707120B14F5B707120B143AB807120B144EB807EA
:20242000120B14DEB807120B1417B907120B1452B907120B147BB907120B14CFB907120B3A
:2024400014E4B907120B1406BA07120B141BBA07120B1455BA07120B1481BA07120B14CA0A
:20246000BA07120B143CBB07120B147FBB07120B14A9BB07120B14D4BB07120B14A63E0082
:20248000120B14A5D706120B1488D806120B1403D906120B143ED906120B148FDA06120BD4
:2024A000141DDB06120B14AFDD06120B1461DE06120B146DDF06120B14E0E006120B1439ED
:2024C000E106120B144FAF07120B1492AF07120B1416B007120B14EDB207120B1497DA07E8
:2024E000120B1493DB07120B14D2DB07120B1413D707120B1476D707120B1413D807120B6A
:202500001448D807120B1478D807120B14B3D807120B14D3D807120B1423A607120B14AF71
:20252000A607120B146EA707120B1486A807120B14A0AA07120B1411C106120B1436C10682
:20254000120B1403C206120B14D7C206120B1444C306120B1484C306120B1420C406120BBB
:202560001454C506120B142FC606120B148EC606120B141AC706120B1488C706120B14148E
:20258000C806120B145AC806120B14CCC806120B145EC906120B14FFC906120B141FCA06CC
:2025A000120B1467CA06120B14B0CA06120B14CCCA06120B14F2CA06120B146CCB06120BB7
:2025C000147ACB06120B1409CC06120B1472CC06120B149FB307120B1424B407120B1466EA
:2025E000B407120B144AB507120B14B7B507120B14FBB507120B143FB607120B146CB607D6
:20260000120B1494B607120B14CCB607120B140AB707120B1431B707120B14ABB707120BAE
:202620001446EE05120B14E5EF05120B141DF205120B1471F205120B149CF205120B1478F8
:20264000F305120B14A8F305120B14D7F305120B1404F405120B1452F405120B148EF4054F
:20266000120B14D3F405120B1420F505120B149AF505120B14DBF705120B14C5F905120B34
:202680001401FA05120B1490FB05120B14D5FB05120B1448FC05120B149DFC05120B14A243
:2026A000FC05120B142CFD05120B144BFE05120B14A2EB06120B141BEC06120B14D5F1063C
:2026C000120B14E0F206120B1489F406120B1417F506120B144DC905120B14CEC905120BC4
:2026E00014FBC905120B1444CA05120B1445CB05120B149ECB05120B141ACD05120B149CEA
:20270000CD05120B140DCE05120B14CACE05120B148DCF05120B141BD005120B14D2D0057D
:20272000120B14E5D005120B147ED105120B1415D205120B143CD205120B14A5D205120BFE
:2027400014EFD205120B143DD305120B14E2D305120B1480D405120B140DD505120B147E1D
:20276000D505120B14C5D505120B141DD605120B144FD605120B1409D705120B1410D805F7
:20278000120B1459D805120B1476D805120B14A7D805120B145ED905120B1483D905120B7D
:2027A0001498D905120B1408DA05120B1449DA05120B146DDB05120B14EEDB05120B14E28E
:2027C000E106120B142DE206120B1439E206120B140DE306120B1424E306120B1461E3069A
:2027E000120B1492E306120B14CAE306120B1420E406120B1436E406120B1472E406120B13
:202800001485E406120B14ACE406120B14E0E406120B1406E606120B1450E706120B144C65
:20282000E806120B1469E906120B14FAFF05120B14008006120B143B8006120B148D830602
:20284000120B14E98406120B14A88506120B140F8906120B14F98906120B14458A06120BC5
:20286000145F8A06120B149C8A06120B14A78A06120B14E68A06120B14EF8A06120B14996F
:202880008B06120B14708C06120B14C48C06120B14218D06120B14938D06120B1424DC057B
:2028A000120B1483DF05120B1489DF05120B14BAE605120B14C1EA05120B14DDC307120B36
:2028C0001473C407120B1489C407120B14E2C407120B1426C507120B1460C507120B14F89A
:2028E000C507120B1467C607120B1470C607120B147CC607120B1496C607120B14C0C6076D
:20290000120B14D5C607120B1437C707120B145EC707120B140BCB07120B1418CB07120B0B
:202920001432CB07120B1465CB07120B14A3CB07120B1408CC07120B141DCC07120B1428EB
:20294000CC07120B1435CC07120B144CCC07120B145ACC07120B1465CC07120B1471CC07DF
:20296000120B1480CC07120B148BCC07120B14A8CC07120B14B8CC07120B14CECC07120BED
:2029800014EACC07120B14F5CC07120B140ACD07120B141ECD07120B147FCD07120B148501
:2029A000CD07120B148BCD07120B1491CD07120B14A3CD07120B14E78E06120B147E8F0685
:2029C000120B146E9006120B14A59006120B14B89006120B14269106120B14C19206120B42
:2029E00014E89206120B148A9306120B14BF9306120B14D09306120B14499406120B146A1D
:202A00009406120B14829406120B14DA9506120B14E39706120B14339A06120B14369B066C
:202A2000120B14859B06120B1480B506120B148AB506120B14ACB506120B14B8B506120B04
:202A4000140AB706120B1439B706120B1469B806120B14ABB806120B14EBB906120B144A2C
:202A6000BA06120B1481BA06120B14BCBA06120B1457BE06120B1470BE06120B14F2BE06DF
:202A8000120B1400BF06120B1455BF06120B1463BF06120B14D0BF06120B1442C006120B80
:202AA0001488C006120B1495CC06120B14B7CC06120B14A1CE06120B1446D206120B1489B3
:202AC000D306120B1463D406120B14E1D807120B1406D907120B1477D907120B1400800767
:202AE000120B14098007120B14128007120B14438107120B14628307120B14988307120BC2
:202B000014D28307120B14088407120B14428407120B14768407120B14A28407120B14EBD7
:202B20008407120B14258507120B146D8507120B14C38507120B14F88507120B14538607B8
:202B4000120B148D8607120B14DE8607120B14148707120B144E8707120B14718707120B61
:202B6000141DE307120B1449E307120B14A4E307120B14AEE307120B14BEE307120B141E26
:202B8000E507120B14E1D207120B1439D307120B14A8D307120B1457D407120B1476D40782
:202BA000120B14CAD407120B1468E507120B14A7E507120B14B1E507120B14BDE507120B31
:202BC00014E63F00120B14B0E007120B14C0E007120B14CFE007120B1481E107120B14BBAF
:202BE000DD07120B143FDE07120B14A5DE07120B14BEDE07120B14DFDE07120B142CDF07D5
:202C0000120B1437DF07120B1482DF07120B14ADDF07120B14B0DF07120B14F83F00120BBD
:202C200014FFFD06120B146FFF06120B14D0FF06120B14FF8707120B14888807120B149FFD
:202C40008807120B14618907120B14438A07120B14B08B07120B14818C07120B14D58D076C
:202C6000120B145D8E07120B1487E107120B14A9E107120B14D2E107120B14EAE107120BC4
:202C8000142CE207120B14F39B07120B14FD9B07120B143D9C07120B14869C07120B14C019
:202CA0009C07120B14169D07120B14359D07120B143E9D07120B148F9D07120B14B89D0778
:202CC000120B14CD9D07120B143D9E07120B14CB9E07120B140F9F07120B14379F07120B8D
:202CE00014B69F07120B14F99F07120B1436A007120B1448A007120B1467A007120B147086
:202D0000A007120B143AA107120B145CFE05120B14ADFE05120B1436FF05120B149CFF054C
:202D2000120B14D6CD07120B1400CE07120B14F5CE07120B1424CF07120B14AACF07120BBE
:202D400014B9DF07120B1411D507120B1447D507120B1480D507120B14D9D607120B14C8E1
:202D6000E307120B14DEE307120B14E8E307120B143EE407120B146FE407120B14D7AA07CF
:202D8000120B14ECAA07120B149CAB07120B14DCAB07120B14F5AB07120B1428AC07120B26
:202DA0001475AC07120B14A9AC07120B14EBAC07120B14E9AE07120B14A7A806120B14DB1A
:202DC000AB06120B1457AD06120B14AEAD06120B14CDAD06120B142AAE06120B1496AF0639
:202DE000120B147AB006120B14D8B306120B14A8B406120B1495D007120B1414D207120B45
:202E000014A0D207120B14BA3F00120B14D3FF06FFFFFFFFFFFFFFFFC082C0839002E1E022
:202E200075F005A4FAABF0122D509002DDEAF0A3EBF09002DD1231C670047913805A7A00CD
:202E4000801574FFF0A3122E9BF088828983A3A3122E9BA3E4F00A9002E1E0F8EAC3985074
:202E600020EA75F005A4F8A9F09002DDE028F8A3E039F9EA8882898370C874FEF0A30480C4
:202E8000C57AC47B221223247A187B23121FF47A1E7B231225D67900023CE2F08882898302
:202EA000A3A3A32274F2120ED7EAFEEBFF8E828F831231C66055EE2403123C40122FFD75A2
:202EC0000D00780C1210EA8A828B83A31211017C027D007AAF7BA91220D87404120E7DE924
:202EE000702E850A82850B83122FFD780C1210EA8A828B83A31211017C027D007AAD7BA91B
:202F00001220D87404120E7DE970057902022FED8E828F83A3A3E024F9C3940A40057918FF
:202F2000022FED9015041231C6600CC3E498FAE499FB122FF050057901022FED7A077B008A
:202F4000122D508A0C8B0DEA450D70057913022FED7A007B00803D9015041239778A0E8B19
:202F60000F7403780E120E54850A82850B83E0250EF8A3E0350F8882F583A3A3A3A3ECF0F1
:202F8000A3EDF0901504E02401F0A3E03400F00AEA70010B122FF040BE850C82850D83E4C1
:202FA000F0A3F0750A05F50B780A1210EAEEFCEFFDE50C2402FAE4350DFB122C8A74021224
:202FC0000E7D9002DF1231C69002DF6017E0FAA3E08003E8FAE9FB8A828B831231C670F3D8
:202FE0008A828B83E50CF0A3E50DF079000230BE8E828F83123995C3EA98EB99221234A80D
:203000008A828B83E0F50C22C082C083E9901503F0023CE274F6120ED78A0A8B0BE9FFEC0E
:20302000FAEDFB74145F60071222B274018009EFA2E6500E1222B2E4FCAA0AAB0B1226122D
:20304000800AA2E040047902800279000234D174F6120ED78A0A8B0BE9FFECFAEDFBEFA2D1
:20306000E5500F1222B27401FCAA0AAB0B122612804974885F603974085FFE1222B2EEFC9B
:20308000AA0AAB0B122612E9F9602E740A120EB31234A48A828B83A3A3A3A3A3A3E0601B8A
:2030A0008A828B83A3A3A3A3A3E06401600B800BEFA2E140047903800279000234D17F06D3
:2030C000020FA974EA120ED78A148B158C128D139002DFE0F50AA3E0F50B7416120EB3E055
:2030E000F516A3E0F5177418120EB3E0F50CA3E0F50D800D850A82850B83E0F50AA3E0F569
:203100000BE50A450B70030231BD7E007F00E50A2405F510E4350BF51180050EEE70010FBD
:20312000850A82850B8312398FC3EE98EF9950C48E0E8F0F7403780E120E54851082851154
:2031400083E0250EF50EA3E0350FF50F850E82F58312398DC3E89514E9951540BEC3E51207
:2031600098E5139940B5E50C450D6023780C1210EA78161210EA850E82850F83E0FC7D00BC
:20318000A31234A41220D87404120E7DE9608C741A120EB31231C6601E851082851183E0B6
:2031A000FAA3E0F5838A82A3A3A3A31234A488828983EAF0A3EBF0AA0EAB0F80047A007B3F
:2031C000007F0E020FA9123995E8492274EE120ED7ECFEEDFF9002DFE0FCA3E0800A8C82DE
:2031E0008D83123991E8FCE9FDEC4D700302328A8C828D83A312398D880A890B8882F5836E
:20320000A3A3A3A3E0F50EA3E0F50FC3EA950EEB950F40CA8C828D83A3A3E0F510A3E0F50E
:2032200011E50E2510F8E50F3511F9C3EA98EB9950AC750C00750D008008050CE50C700266
:20324000050DC3E50C9510E50D95115091850C12850D1374037812120E54E50A2512F8E5CA
:203260000B3513F988828983A3A3A3A3E06A7003A3E06B70C5EE4F600B8E828F83E50EF0D3
:20328000A3E50FF0E8FAE9FB80047A007B007F0A020FA974F0120ED774FE120E67EAFEEBFE
:2032A000FF750A00750B00851A82851B83E4F0A3F0EE2404F50EE43FF50F850E82F5831286
:2032C0003DC6A385820C85830D74FF6A700374FF6B6038A81AA91B880A890B780A1210EA20
:2032E0008E828F83E0F50A750B00780A1210EA850C82850D83121101EA24010A50010B12EC
:20330000229A7406120E7D8A0A8B0B8E828F83E0F51075110078101210EA850C82850D8367
:203320001211017C027D007AAF7BA91220D87404120E7DE970288E828F83E0F510781012E0
:2033400010EA850C82850D831211017C027D007AAD7BA91220D87404120E7DE9600B850EDB
:2033600082850F831234A480458E828F83E0F51078101210EA850C82850D831211017C02A0
:203380007D007AB97BA91220D87404120E7DE960367412120EB31234A4E50A450B600F8545
:2033A0001A82851B83E06A7003A3E06B60051222BE801F850A82850B83A3A3A3A3E024FFFA
:2033C000FAA3E034FF800A850E82850F83E0FAA3E0FB7414120EB312399188828983E5827B
:2033E00045836005EAF0A3EBF0AA0AAB0B023C4C74F6120ED71223008A828B83E582458375
:2034000060051234A480047A007B000234D174F6120ED71223008A828B83E5824583600698
:20342000A3A3E0F9800279100234D1E0FEA3E0FF2274F5120ED774FC120E67EAFEEBFF8C24
:203440000A8D0B890C7402120ECD122306E9F97417696032E50C60211234901222A0851A74
:2034600082851B831234A41222B2E9F97C01EEFAEFFB122612E9F9700DAC0AAD0BEEFAEFB8
:20348000FB122042E9F97404120E7D7F03020FA9851A82851B83E4F0A3F0AC1AAD1B850AC2
:2034A00082850B831234A822E0FAA3E0FB2274F6120ED7EAFEEBFF1222ACEA4B600FEE2424
:2034C000FFF8EF34FFF9EA28FAEB398003EEFAEFFB7F02020FA974EC120ED774E6120E67E2
:2034E0008A0A8B0B8C0E8D0F7E007F00EC2402F50CE4350FF50D850C82F583E0F8741E68D5
:20350000705C12230C8A0E8B0FAE0EAF0FEE4F70030235B18E828F83A3A3E0F874FE6870D0
:20352000030235B174FF6870030235B1E4F50EF50F780E1210EA850C82850D83E0FD7C006C
:20354000AA0AAB0B8E828F83A3A3A3E0F91223427402120E7DEEFAEFFB12231280538C8299
:203560008D83A38582128583137412687005E06401604312230C8A108B11AE10AF11EE4FE7
:203580006034EE2404F510E43FF511851082F583E0FC6022A2E74019850C82850D83E0F983
:2035A000AA0AAB0B122354851082851183E0D2E7F07900023789901503E0F46068850C82CD
:2035C000850D83E0FA74FE2AC394175058EAC313F51075110074027810120E5474002510E4
:2035E000F874A83511F9E824FCF510E934FFF511851082F583123977EC4D6029E824FEF537
:2036000082E934FFF5831231C6601A850E82850F83E0FB700B851282851383E06401700A9C
:2036200074126A600579060237897404120EBD8814891578141210EA850E82850F83A3A35B
:20364000A3121101850E82850F83A3A3A3A3A3123977851282851383E0FAEBF985108285F8
:203660001183123793120ED57404120E7DE9F50E60030237877404120ECDAA0AAB0B850C61
:2036800082850D83E0C313F50E750F007402780E120E5474FE250EF58274A7350FF58312E1
:2036A0003793120ED5E9F50E600302372F850C82850D83E0FD74046D7003023787740412ED
:2036C0000EBD880E890F780E1210EA7C00AA0AAB0B901503E0F91223427402120E7DE9F590
:2036E0000E6003023787850C82850D83E0F97404120EC512235A8B0BEA450B600A742E12BE
:203700000EB3123793E4F0850C82850D83E0F8741268700B851282851383E064016068EEA0
:203720004F6064E88E828F83A3A3A3A3F08058851282851383E0704F850C82850D83E085B8
:203740001A82851B83F07403120EB3E9F0850C82850D83E0F8740468600D7406686008748C
:20376000086860037410687404120EB31239917401120EB3E8F0A3E9F0AC1AAD1BAA0AABDA
:203780000B121FFA750E00A90E741A120E7D7F0C020FA912379722E0F8A3E0F58388822248
:2037A0007900020B1174EA120ED774FA120E678A128B138C828D831234A4EC2402F514E4E7
:2037C0003DF515851482F583C3E09AA3E09B4004EA4B7005790102396F851A82851B83E47A
:2037E000F07402120EB3E4F0A3F08007E82401FAE439FBE4F50AF50B780A1210EA780A127E
:2038000010EA780A1210EA85148285158312397712229A7406120E7D8A0A8B0BEA450B706D
:20382000030239108A828B83A3858210858311EA2404F50CE4350BF50D851A82851B83E0F0
:20384000600302391D7404120EBD880E890F780E1210EA7CFF7DFF7905AA12AB1312236014
:203860007402120E7D8A0E8B0FAE0EAF0FEE4F7005791102396F7402120EB3EEF0A3EFF0FA
:20388000850A82850B83E0640270237401120EB37401F07404120EB3E0F516A3E0F5177445
:2038A000027816120E4585160E85170F80797401120EB37402F07404120EB31239917A1265
:2038C0007B00120DDC880E890F12399B750A10750B00780A1210EA12397D122C8A740212A9
:2038E0000E7DEE2410FE50010F851A82851B83E004F0C3950EE4950F5016850C82850D8329
:2039000012399174FF68700374FF6960030237EC851A82851B83E0703B790A80527401126E
:203920000EB3E0640170A2850A82850B83E0640270DE12399B750A02750B00780A1210EA42
:2039400012397D122C8A7402120E7DEE2402FE50980F8095AC1AAD1BAA12AB13122006E97D
:20396000600B7402120EB31234A4122D0E79007406120E7D0231C1E0FCA3E0FD2285108243
:20398000851183E0FCA3E0FDEEFAEFFB22A3A3A3A312399522E0F8A3E0F922850C82850D15
:2039A00083E08E828F83F0A3AE82AF83850C82850D83A3E08E828F83F0A30EAF832274F661
:2039C000120ED7123A664004EA4B700479018039E4F50AF50B780A1210EA8C828D83A3A349
:2039E000A3A3E0F50A780A1210EA123A5A1210EAEEFCEFFD12229A7406120E7D8B0BEA45E2
:203A00000B7004790A800279000234D174F6120ED7123A664004EA4B700479018039E4F596
:203A20000AF50B780A1210EA8C828D83A3A3A3A3E0F50A780A1210EA123A5A1210EAEEFC3B
:203A4000EFFD12229A7406120E7D8B0BEA450B7004790A800279000234D1EC2405F50AE4D4
:203A60003DF50B780A228C828D83A3A312342B8C828D831234A8C3EE9AEF9B2274F6120E03
:203A8000D774FE120E67EAFEEBFF8C828D83AC1AAD1B1234A41222A08A0A8B0BA80AA90B8A
:203AA000E84970047901800A123B81EEFAEFFB12228E7402120E7D0234D174F0120ED77412
:203AC000FE120E678A0C8B0D8C0A8D0B750E008002050E850A82850B83A3A3E0F8E50EC3F5
:203AE000985075AE0EEE2EFEE433FF850A82850B83E02EF8A3E03FF988828983AC1AAD1BF4
:203B0000E0FAA3E0F8E4C8F9EA28E439FB1222A08A108B11A810A911E8497018123B6FE0B0
:203B200088828983F0123B6FA3E088828983A3F079018026123B81AA0CAB0D12228EE9F997
:203B4000608F123B5DE08A828B83F0123B5DA3E08A828B83A3F080027900023C4C850A8272
:203B6000850B831234A8EA2EF582EB3FF58322850A82850B83123995E82EF582E93FF583C0
:203B800022851A82851B83E0FCA3E0FD88828983A3A3A3E0F92274F0120ED7ECFEEDFF8EAA
:203BA000828F83123991123C3DC3E098A3E0994004E84970057901023C3BEE2405F510E4D6
:203BC0003FF511EE2404F50CE43FF50D850C82F583E0F50E750F00780E1210EA7810121036
:203BE000EA7C027D007AAF7BA91220D87404120E7DE9700479108043E4F50E780E1210EA52
:203C0000850C82850D83E0F50C750D00780C1210EA78101210EA850A82850B831239778E81
:203C2000828F831234A412229A7406120E7D8B0BEA450B7004790A800279008014EE2402B7
:203C4000F50AE43FF50B850A82F583227402120E7D7F08020FA974F4120ED774FE120E67EB
:203C6000EAFEEBFF8C0A8D0B12349A1222A0EA4B700479018022780A1210EA7402120EB3F4
:203C80001239778A828B83A3A3A3E0F9EEFAEFFB1222947402120E7D7402120E7D7F040241
:203CA0000FA90237A0C082C0839002DF8004888289831231C6602788828983A3A3A3A3A30E
:203CC000E0FCA3E0F5838C82A3A3A3A3E06A7003A3E06B70D9E82402FAE439FB80047A0061
:203CE0007B00D083D082020B1174F6120ED7ECFEEDFF12230C8A0A8B0BA80AA90BE84960ED
:203D00002BEE4F60098E828F83E8F0A3E9F088828983A3A3E0F874FE6870047917800F7447
:203D2000FF687004790080067916800279020234D1C082C0837C0080010C9002E1E0F8EC51
:203D4000C3985025EC75F005A4F8A9F09002DDE028F8A3E039F988828983E06A7003A3E08E
:203D60006B70D6E8FAE9FB80047A007B00023CE274F7120ED7EAFEEBFFEE2402FAE43FFBD3
:203D80001223488E828F83A3A3A374FFF07F01020FA974F6120ED7E9FE12230C8A0A8B0B4B
:203DA000A80AA90BE849601BE82404F582E439F583EEF8E07B00240150010B684B7004E00C
:203DC0005480F00234D11234A88E828F832274F0120ED78A0C8B0D890E74FE650C700474FB
:203DE000FF650D7003023EA3E9702B12230C8B0BEA450B701E7AFF7BFF12230C8A0A8B0B7B
:203E0000AE0AAF0BEE4F600B8E828F83E50CF0A3E50DF0023EA37401650E701A12230C8AE0
:203E20000A8B0BAE0AAF0BEE4F60788E828F8374FFF0A3F080217402650E70677901122531
:203E4000F4E9705FAA0CAB0D12230C8A0A8B0BAE0AAF0BEE4F604C123C3DE0F874FF6860E4
:203E60003874FE686023E4F510F51178101210EA7D1E7C14AA0CAB0D8E828F83A3A3A3E0A6
:203E8000F91223427402120E7DEEFAEFFB122312850A82850B8374FFF08E828F83A3A3A3F4
:203EA000A3E4F0023C5174F2120ED78A0A8B0BECFEEDFF890C900308E06401701790030907
:203EC000E024FFF0F8A3E034FFF0F9E8497005790112265A90073CE060417A097B00122C16
:203EE000AEEA4B7003023F868A828B837490F0A374FFF08A828B83A3A3E50AF0A3E50B12AD
:203F00003FA97402123FA4E50CF0A3E4123FA4A3A3EEF0A3EFF090073C80647A047B001289
:203F20002CAEEA4B60608A828B837401F0A374FFF0EE24FBF8EF34FFF9EA2402FCE43BFDE5
:203F40008C828D83E8F0A3E9F0888289837402F0123F92E50AF0740E120EB3E0C454F0C0B4
:203F6000E0E50BF50AD0E0450AC0E0123F92A3D0E0123FB3E50C123FB3A3E4F0900739E07D
:203F8000F9122CBA8007EEFAEFFB122D0E7F06020FA9123F96228C828D83E0F8A3E0F58351
:203FA0008882A322123FA9A322F08A828B83A3A3A3A322F0123F96A3A322C082C083851A58
:203FC00082851B83E0F8A3E0F9E84960128A828B83ECF0A3E824FF18E934FFF94870F2D0FA
:203FE00083D082020B117407F5D575D43F7407F5D375D247020B11FF851C87C2AF020B115C
:020000040002F8
:20A800005A20CA226620D0227220D6227E20DC228A20E2229C20E222A820E8227E20EE2246
:20A820009620F42200000000BA20F422C620FA22000000000000000000000000000000005A
:20A840000000000000000000000000000000000000000000000000B000405104C1FF00F003
:20A8600000000000000000B000405104C2FF00F001010201020101020102030304010301C5
:20A880000101010103030201032426D02B642B262D1C253A223623CE2AD42D7223F82DF4E4
:20A8A00001FA00960064004B0032001E00140000000000000000000000000000000087006D
:20A8C000000000000000B000405104C0FF00F0FB349B5F8000008000100000000000004902
:20A8E0006D67204964656E7469667900496D6720426C6F636B00012A00000000001B7869D9
:20A90000E0AB50C3F0D2702276220000362C3C2C00000000EA23000031B1E1FFD6BE898E69
:20A92000000800000400000003000000E8030000F1FFFFFFF8FFFFFF1A0000000700000019
:20A94000F6FFFFFF5000000001C800000D000000F4FFFFFF40420F00FFFFFF0071020000EC
:20A960000A00000001000000555555000500000060EA000002000000E7FFFFFF7D0000001B
:20A980000000FF000100FF0043000000419C00001900000064000000FFFFFFFF02B3A910B1
:20A9A000BFA802B5A9002A02290129022A01280028032A01180018042A0328052A0BD08390
:20A9C000D082020B1174F6120ED7E99002E7F0900347E0F50A750B007402780A120E54AA05
:20A9E0000AAB0B122D509002E812B3789002E812B765606F900347E075F003A4FAABF0126D
:20AA00002D5090030512B37890030512B765700B9002E812B736122D56804890030512C65D
:20AA2000CA7AFF7BFF122B827A0080198A0A750B007402780A120E5412C17274FF12AB781A
:20AA4000E4F0A3F00A900347E0F8EAC39840DD790512237E9002E7E0F91222887AFC7B231E
:20AA60001225D602C21574F4120ED78A0A8B0BEB548060479002E7E0F9122CC68A0C8B0D7D
:20AA8000AE0CAF0DEE4F602A8E828F83E064B0701A122390E960148E828F83A3A3A3A3E029
:20AAA000F9EE2405FAE43FFB122366EEFAEFFB122CB4AA0AE50B6480FB80047A007B000211
:20AAC000ACC874F2120ED774FB120E67EAFEEBFFEE4F60457403120EB3EEF0A3EFF0851AB2
:20AAE00082851B83ECF0A3EDF07402120EB3E9F0AA1AAB1B122282E9F50A70757413120E7F
:20AB0000B3E0F50CA3E0F50DE50C450D60638E828F8312B101EE4F7005750A0280537A06AA
:20AB20007B00122D508A0E8B0FA80EA90FE8497005750A13803B88828983E412AB78EEF06B
:20AB4000A3EF12AC94E50CF0A3E50DF09002EB12AC8D9002EB6017E0FCA3E08003EAFCEB3C
:20AB6000FD8C828D8312AC8D70F38C828D8312BD8DA90A740502C8CCF0A312C6ACA3227480
:20AB8000F2120ED7890A890E750F007403780E120E54850E0C850F0D9002EAF09002E81275
:20ABA000BB9812AC8B602E122D567900801D890E750F007402780E120E549002E812C031B8
:20ABC0008882F583A3A3E4F0A3F009900347E0F8E9C39840D9900347E0FA850CF0A4CAA8E3
:20ABE000F0850DF0A428FB122D508A0E8B0FAE0EAF0FEE4F700302AC81900347E0FC850CBB
:20AC0000F0A4CCA8F0850DF0A428FD7900122CA27C0080318D0E750F007403780E120E54DB
:20AC20008A828B8312AC8688828983E4F012AC93A3A3F0A3F00DEDC3950A40D8EE250CFE21
:20AC4000EF350DFF0C900347E0F8ECC39850288C0E750F007402780E120E549002E812AC81
:20AC600086E82402500109FAE9FB8A828B83EEF0A3EFF07D0080BFE50A9002EAF07900807E
:20AC800002791302C8CF12C035F922A3A312B73AEA4B22A312C6ACA3A3A32274F4120ED73A
:20ACA0007900EAA2E0501F750A12750BA9780A1210EA79107C047D007A087B15122378743F
:20ACC00002120E7DE9F980007F04020FA9C082C0839002EB12B765601C88828983A3A3E04E
:20ACE0006A7003A3E06B8882898370E8A3A3A3A312B73680047A007B0002A9BE74F2120E28
:20AD0000D774FD120E67EAFEEBFF851A82851B83E4F0A3F07402120EB37401F012B762709E
:20AD200014122510122D509002EE12B37812B762700302AE8E12B478EE2404F50CE43FF523
:20AD40000D850C82F583E024FE603C24FC607424FE607E24FE700302ADDE24FE700302AD63
:20AD6000EB24FE700302ADF824FE700302AE0524FE700302AE1224FC700302AE3324FE7003
:20AD80000302AE4B02AE871225109002F0EAF0A3EB12AE9A122000E9600302AE879002F0BC
:20ADA0001211018E828F83A3A3A3A3A312C6CA850A82850B8312B73612234E7402120E7DC3
:20ADC00002AE87AC1AAD1BEEFAEFFB12239602AE56AC1AAD1BEEFAEFFB12239C8078AC1A1C
:20ADE000AD1BEEFAEFFB1223A2806BAC1AAD1BEEFAEFFB1223A8805EAC1AAD1BEEFAEFFB7C
:20AE00001223AE8051AC1AAD1BEEFAEFFB1223B480447402120EBD880E890F780E1210EA5E
:20AE20007402120ECDEEFAEFFB1223BA7402120E7D8023AC1AAD1BEEFAEFFB1223C0E9F802
:20AE400070167402120EB3E4F0803CAC1AAD1BEEFAEFFB1223C6E9F8E8602C8E828F83A31E
:20AE6000E064146022850C82850D83E09002F0F0851A82851B8312B7369002F112B378E893
:20AE8000A312AE9A121FFAEEFAEFFB12232A7402120EB3E0F9740302C8CCF07CF07D0285CA
:20AEA0000A82850B8312B73A2274E8120ED774FA120E677404120EB3ECF0A3EDF08A148BB6
:20AEC00015EA2405F510E43515F511EA2402F512E43515F513851282F58312B7361220EA18
:20AEE0008A0C8B0D750A007C037D0079007AF07B02122CA2E5102402F518E43511F5197495
:20AF000002120EBD880E890F780E1210EA851082851183A3A3A3A3E0F50E750F00780E12D7
:20AF200010EAE5102405F50EE43511F50F780E1210EA85188285198312BA3D12229A7406A5
:20AF4000120E7D8A0E8B0FE50E450F700302B0CA8020851A82851B83E088828983F0050A13
:20AF6000851A82851B83A3E0C0E012B10BD0E0F0050AE50C24FBFAE50D34FFFBC3E50A9A77
:20AF8000E49B400302B0CA7E007F00851482851583A3A3A3A3E0F50B780B1210EEE4F51650
:20AFA000F51778161210EA7516ED75170278161210EA9002EE1211017409120EB312110133
:20AFC000E50C24F9F9AC0EAD0F85128285138312B7361223F07409120E7DE9600302B06B19
:20AFE000851082851183A3A3A3A3A3A3A3E0F89002EDE0687075E0F5168E1778161210EAFE
:20B0000012C6C7851082851183A3A3A3A3A3A3A3A312B736122C9C7402120E7DE9604C9038
:20B0200002F112B765703BE4F51678161210EA7CFF7DFF790785128285138312B7361223DC
:20B04000607402120E7D12B76B701785108285118312C8117404120EB312C12512BA6E0228
:20B06000B0FE850E82850F8312B101A81AA91B8816891778161210EA7404120EB312110165
:20B0800085188285198312B36E1222A67404120E7D8A0E8B0FEE4F700302AF4712B10BEEB8
:20B0A00012B11612BA24EF12B116F8A3E03400F9E50E450F600302AF528882898374FFF031
:20B0C000050A12B10B74FFF0050AE50A601A1313543F12B37E12200CE960099002F112B7E0
:20B0E00036122D0E7900801685108285118312C8117404120EB312C12512BD8D790A02B9C6
:20B10000F7A3A3A3A3E0FEA3E0FF22A80A9002F1E02812BA2422F0050A089002F1E0282227
:20B1200074E8120ED774FA120E677402120EB312B3787404120EB3ECF0A3EDF07402120E04
:20B14000B3E0240512BA0DE0F50EA3E0F50F7402120EB3E02402F512A3E03400F513851244
:20B1600082F58312B7361220EA750A00750B00EA24FCFEEB34FFFF8008050EE50E70020591
:20B180000FA80AC3EE98EF9400500302B32AA81AA91B8810891178101210EA8516828517EB
:20B1A00083A3A3A3A312C6CE1210EAE5162405F510E43517F51178101210EA851682851722
:20B1C0008312B36C12229A7406120E7D8A108B11EA4511700302B32AEA2404F518E43511C5
:20B1E000F519851882F583E0F50EA3E0F50F851A82851B8312C6CA8A828B83A3A3A3E0F97E
:20B2000085128285138312B73612228EE9F50B600302B32A7402120EB312BA34F50B780B42
:20B220001210EEE4F514F51578141210EA7514ED75150278141210EA9002EE1211017407B6
:20B24000120EB3121101EEF9AC10AD1185128285138312B7361223F07409120E7DE9F50B3B
:20B26000600302B32AE50A703FE4F510F51178101210EA7CFF7DFF790985128285138312AC
:20B28000B7361223607402120E7D12BA5A700D7404120EB312B361791102B35E9002EDE009
:20B2A00024029002F1F080149002F1E0FA9002EDE0790024025001096A497072A80A9002D3
:20B2C000EDE0FAE82AFAE43400FBEE9AEF9B405A851882851983E0C0E09002F212B110D0F5
:20B2E000E0F0050A851882851983A3E0C0E0089002F212B110D0E0F0050A9002ED12C6CED9
:20B300001210EA12C6C7A80A12BA01122C8A7402120E7D9002EDE0250AF50A74FF650E7045
:20B320000474FF650F600302B179E50A601F9002F1E0F5F0E50A8412B37E122012E9600991
:20B340009002F212B736122D0E79008011E50B7003750B0A7404120EB312B361A90B02B946
:20B36000F712BB9CE50EF0A3E50FF022A3A312C8DBAA0EAB0F22A3A3EAF0A3EBF022900200
:20B38000F0F07CF07D0285128285138312B73A2274EC120ED774FC120E6712BE9D74021246
:20B3A0000ECD12B7301222A08A0E8B0FEA450F700302B46812B478A81AA91B881289137872
:20B3C000121210EA7CFF7DFF790B850A82850B8312B7361223607402120E7D12B56E700C58
:20B3E000850C82850D8312BA6B02B4758E828F83A3A3A3A3E0F51478141210EEE4F514F5AE
:20B400001578141210EA7514F075150278141210EA78121210EA7409120EB312110174095B
:20B42000120EB3E0F9AC0EAD0F850A82850B8312B7361223F07409120E7DE9FE70157CF0B0
:20B440007D02850A82850B8312B736122018E97009802074166E70027E009002F112B73694
:20B46000122D0EEE7004800B7E01850C82850D8312BD8AEEF902BD9FEE2402F50AE43FF522
:20B480000B2274EC120ED774FC120E67EAFEEBFF8C108D11EE2405F50AE43FF50B74021264
:20B4A0000ECD850A82850B8312B7361222A08A0E8B0FEA450F700302B55EEE2402F50CE4C9
:20B4C0003FF50DA81AA91B8812891378121210EA7CFF7DFF790D12B7301223607402120E38
:20B4E0007D12B56E700B850A82850B8312BA6B807A8E828F83A3A3A3A3E0F5147814121085
:20B50000EE850A82850B83A3A31211017514F075150278141210EA78121210EA7409120EDF
:20B52000B31211017409120EB3E0F912B72C1223F07409120E7DE9FE700F7CF07D0212B7BD
:20B540003012201EE97009802074166E70027E009002F112B736122D0EEE7004800B7E0146
:20B56000850A82850B8312BD8AEEF902BD9F12B775F512A3E0F513EA45132274E8120ED782
:20B5800074FE120E678A188B198C168D17EA2405F50EE43519F50FEA2402F510E43519F59E
:20B5A00011851082F58312B7361220EA8A0A8B0B750D007C037D0079007AF07B02122CA2E8
:20B5C000750C00E50A14F5120424FFF50AE50B34FFF50B80549002F0E0FA9002EDE0F8EA26
:20B5E00028F8E43400F9E50A98E50B99500D9002F0E0F8E512C3989002EDF0E0F51475151F
:20B600000078141210EA12C6C79002F1E02AFAA3E03400FB122C8A7402120E7D9002EDE080
:20B62000F89002F0E028F0050C850E82850F83A3A312C041400302B7119002F0E0C3950A31
:20B64000E4950B400302B711AE0CEE2EFEE433FF12B750AC1AAD1B12C6E2E439FB1222A022
:20B660008A148B15AC14AD15EC4D701B750D0112B74012BD8E9002F112AC8D6003122D0EDF
:20B68000A90D740202B9F9851882851983A3A3A3A3E0F50D780D1210EEE4F514F515781404
:20B6A0001210EA7514ED75150278141210EA9002EE1211017407120EB3121101A91285107E
:20B6C0008285118312B7361223F07409120E7DE9F50D709B9002F112B765600302B5D5E417
:20B6E000F514F51578141210EA7CFF7DFF790F85108285118312B7361223607402120E7D49
:20B7000012B76B600302B5D512B74012BA6F02B6827CF07D0285108285118312B73612203C
:20B7200024E9600302B675790002B682AC0EAD0F850C82850D8312B73A22E0FAA3E0FB227C
:20B7400012B750E0FAA3E0F9EA85168285178322850E82850F83E02EF8A3E03FF9888289B2
:20B7600083229002EE12C815E8492212B775F8A3E0F9E849229002F1EAF0A3EBF09002F1FF
:20B78000E02274E8120ED774FA120E677404120EB312B3788C188D197404120EB3E0240539
:20B7A000F510A3E03400F5117404120EB3E0240212BA0D12B7361220EA8A0C8B0D7F007E57
:20B7C00000A81AA91B880A890B780A1210EA851082851183A3A3A3A3E0F50A8E0B780A1267
:20B7E00010EAE5102405F50AE43511F50B780A1210EA851082851183A3A312BA3D12229A2D
:20B800007406120E7D8A0E8B0F802912BA2EF00F12BA2EF00F9002ED12BD791210EA12C699
:20B82000C7EFF812BA01122C8A7402120E7D9002EDE02FFFE50E450F700302B8BD851A82D3
:20B84000851B8312BEAFA3A3A3E0F985168285178312B73612228EE9FEE50E2404F512E49A
:20B86000350FF513EE70507404120EB312BA34F50A780A1210EEE4F50AF50B780A1210EA81
:20B88000750AED750B02780A1210EA9002EE1211017407120EB3121101E50C24FAF9AC0E54
:20B8A000AD0F85168285178312B7361223F07409120E7DE9FE603912BA4A12BD8DEF7003FE
:20B8C00002B9E49002F1E0F5F0EF849002F0F07CF07D0285168285178312B73612202AE931
:20B8E00060099002F212B736122D0E790002B9F78F0AEF703BE4F514F51578141210EA7CA6
:20B90000FF7DFF791185168285178312B7361223607402120E7D12BA5A700912BA4A12BABE
:20B920006E02B9F79002EDE024049002F1F080359002EDE0F89002F1E0FAE82404FCE43460
:20B9400000FDEC6A4D600302B8C3E50C24FAFAE50D34FFFBE50A28F8E43400F9EA98EB9918
:20B96000500302B8C3851282851383E0C0E09002F2E02FF8A3E034008882F583D0E0F00FD0
:20B98000851282851383A3E0C0E012BA1BD0E0F00F7402120EBD880A890B780A1210EA743F
:20B9A00002120EB312110185108285118312B36C1222A67404120E7D8A0E8B0FEA450F705E
:20B9C0000302B80B7402120EB3E0C0E012BA1BD0E0F00F7402120EB3A3E0C0E012BA1BD01D
:20B9E000E002B813EE70027E0A85108285118312BA5012BD8DEEF97406120E7D7F10020F6C
:20BA0000A99002F2E028FAA3E03400FB22F516A3E03400F517851682F5832212BA1F229001
:20BA200002F2E02FFAA3E034008A82F5832212BA1F74FF2212BB9CA3A3A3A3E02212C8DB80
:20BA400085108285118312B73A2285128285138312C815851882851983229002F2EAF0A30B
:20BA6000EBF09002F212C815E8492212BD93E8F0A3E9F079112274EA120ED774FE120E6775
:20BA80008A0A8B0B8C148D15EA2405FEE4350BFFAC1AAD1B8E828F8312B7361222A08A0EEB
:20BAA0008B0FEE2406F510E43FF511EA450F700302BB6EE50A2402F50CE4350BF50D8A8282
:20BAC0008B83A3A3A3E0A2E55028851A82851B8312B7361223E48A128B13EA4513602079BF
:20BAE0001212B72C851282851383120ED5E9F50E707F851082851183E060097952801175F1
:20BB00000E0E806D850A82850B83A3A3A3A3E0F9E4F50AF50B780A1210EA8E828F83A3A3BA
:20BB2000E0F50A780A1210EA8E828F83A3A3A31211018E828F8312C6CA12B7301223F6740D
:20BB400006120E7DE9F50E7011851082851183E0702D12B73012203080257416650E7011AA
:20BB6000750E007418120EB312BB98E48010750E0112C80D851482851583E8F0A3E9F0858E
:20BB80001082851183E0600479008002A90E7402120E7D7F0E020FA912BB9C22E0F8A3E0C4
:20BBA000F58388822274EC120ED774F7120E678A0C8B0D8C128D13EA2405FEE4350DFF7581
:20BBC0000E00AC1AAD1B8E828F8312B7361222A08A0A8B0BEA450B700302BD64E50C2402C3
:20BBE000F50C5002050D8A828B83A3A3A3E0A2E5502F851A82851B8312B7361223E48A0E03
:20BC00008B0FEA450F604F7912AC0AAD0B12B730850E82850F83120ED5E9F50E600302BD7C
:20BC200067850C82850D83E0F50AA3E0F50BAA0AFB1223D8EA4B70197AFF7BFF1223D8EAAF
:20BC40004B700302BD5A8A828B83E50AF0A3E50BF0750A008008750E0E02BD67050A900232
:20BC6000EAE0F8E50AC398400302BD5A850A1075110074037810120E548A828B83A3A3E084
:20BC80002510F8A3E0351112C12E70D08E828F8312BD8212B3788E828F83A3A312BD8212F2
:20BCA000B376EE2404F50AE43FF50B850A82F583E088828983A3A3A3A3F0A3E4F0EE24059A
:20BCC000F510E43FF511851082F58312BD82A3A3A3A312B37675140775150078141210EADD
:20BCE000EEFCEFFD7404120EC5122C8A7402120E7DE4F51478141210EA850A82850B83E0AD
:20BD0000FC7D00791712B7301223607402120E7D7407120EB312B3787407120EB3E0FA4B7B
:20BD2000603D850A82850B8312BD791210EA85108285118312C6CA122C8A7402120E7D74CD
:20BD400002120ECD12B730122036E960267407120EB312B736122D0E8019750E0980087568
:20BD60000E118003750E0112C80D85128285138312BD8DA90E74098028E0F50A750B007873
:20BD80000A2212B73A888289832212BD93E8F0A3E9F022E0F8A3E0F985108285118322744A
:20BDA00004120E7D7F0C020FA974EC120ED712BE9D751200EE2402F50EE43FF50F850E82FF
:20BDC000F58312B7361223D88A0A8B0BEA450B700302BE81850C82850D83E06401600302F5
:20BDE000BE76AC0AAD0BAA0CAB0D1223CCE9606E850A82850B8312B103EE2406F50CE43F55
:20BE0000F50D8E828F83A3A31211018E828F83A3A3A3A3121101850C82850D8312110179FD
:20BE2000188E828F8312BEAF12B7361223F67406120E7DE9F8741668700B850C82850D8392
:20BE4000E4F0A38014E860128E828F8312B736851082851183EAF0A3EBF08812801878101A
:20BE60001210EAAC0AAD0BEEFAEFFB1223D27402120E7DE9F512AA0AAB0B1223DEE5127088
:20BE80000E850E82850F8312B73612203C8009741665127003751200A91202BDA4EAFEEB86
:20BEA000FF8C108D11EE2405F50CE43FF50D2212C8DB850E82850F832274EA120ED7750A13
:20BEC00000750B007E007F00750C00EC2402F512E43DF5138035EC650A7003ED650B6003DF
:20BEE00002BF6E88828983A3A3E06A7003A3E06B707C88828983A3A3A3A312C811EE28FE7F
:20BF0000EF39FFEA28FAEB39FB050C12C03E503A850C0E750F007403780E120E5485128277
:20BF200085138312C03112C12E601FE50A450B70A58C0A8D0B8882898312B10188828983F1
:20BF4000A3A3E02EFAA3E03F80BEE50CC39402500302C02C750A00750B00EE4F6010EEFA74
:20BF6000EFFB122D088A108B11EA45117005790002C02E750D0002C001850D0E750F00745F
:20BF800003780E120E54851282851383E0250EF50EA3E0350FF50FE50E2406F516E4350F3F
:20BFA000F517851682F58312C1336042E50E2404F514E4350FF515851482F583121101E546
:20BFC00010250AFAE511350BFB122C8A7402120E7D851482851583E0250AF50AA3E0350B13
:20BFE000F50B85168285178312B736122D0EE50D600D7C087D007900AA0EAB0F122CA20589
:20C000000DE50DC3950C500302BF7985128285138312C81188828983A3A3A3A3A3A3E51034
:20C02000F0A3E51112AC94EEF0A3EFF0790102BB9312C03522E0250EF8A3E0350F2290024C
:20C04000EAE0F8E50CC3982274F0120ED78A108B118C0C8D0D750F00750E0080507916EE99
:20C060002406F50AE43FF50B8E828F83A3A31211018E828F83A3A3A3A3121101850A828580
:20C080000B83121101851082851183A3A312B7361223F67406120E7DE9F50F7416650F70DC
:20C0A0006C850A82850B83E4F0A3F0050E9002EAE0F8E50EC3985066AA0E8A0A750B0074DE
:20C0C00003780A120E54850C82850D83A3A312C17DE8FEE9FF8E828F8312C1336040EA2405
:20C0E00001F50AE43400F50B9002EAE0650A7002E50B601488828983A3A3A3A3A3A3A3A359
:20C1000012B765600302C05D791802C05FE9609B12C80D7410120EB312C12512BD8DA90F8F
:20C120007F08020FA9E0FAA3E0F5838A8222F98882898312C8DBEC4D2274F6120ED77C00BF
:20C1400080010C900347E0F8ECC398501E8C0A750B007402780A120E5412C172E06A700367
:20C16000A3E06B70DDE8FAE9FB80047A007B0002C2159002E812C17D8882898322E0250A5B
:20C18000F8A3E0350BF92274F2120ED78A0A8B0B750C0080278E828F83A3A3A3A312AC8B23
:20C1A0006003122D0E7C087D007900EEFAEFFB122CA28E828F83E4F0A3F0050C12C03E50A9
:20C1C00027850C0E750F007403780E120E54850A82850B83A3A3E0250EFEA3E0350FFF8ED5
:20C1E000828F8312B76570AD850A82850B8374FFF0A3F002C8CF74F6120ED712238A8A8281
:20C200008B83E582458370067A007B008007A3A3A3A312B7367F02020FA974F4120ED78941
:20C220000A8C828D83E06402703C12C803FEA3E0F9EEF874026870037429697029750C0234
:20C24000750D00780C1210EA7410120EB31211017410120EB3121101A90A122B8E740612CC
:20C260000E7DE9F98002790102ACC874E8120ED774FB120E67E9851A82851B83F08A188B4C
:20C2800019ECFEEDFF7512008E828F83A3A3A3E0A2E4502D741D120EB312B7361223E48A34
:20C2A000828B83E5824583700302C6A2790AEEFCEFFDAA18AB19120ED5E9F512600302C6F3
:20C2C000A5741F120EB3E0F50AA3E0F50B7421120EB3E0F50CA3E0F50D7423120EB3E0F5E4
:20C2E00010A3E0F5118E828F83E06402600302C643A312C811850A82850B83A385821485DA
:20C300008315EE2406F50EE43FF50F8882898312C6E2F516E439F517781612117401000019
:20C3200028012845C3070002280AC4032878C3002939C5012964C5022905C5032939C504A2
:20C3400029DDC543C6E5104511600302C63E850E82850F8312C811E8FAE9FB8A828B83E07E
:20C36000850C82850D8312C6ED1210EA8A828B83A3E0FCA3E002C5C7E5104511600302C6A4
:20C380003E850C82850D837401F012C6D7850A82850B83F07C007D008E828F83A3A3A3A368
:20C3A000E02401FAA3E03400FB1222A0EA4B60408A828B83E02402F8850C82850D83E028DB
:20C3C000F0EA2404F8E43BF988828983E085148285158312C6FB12C6ED1210EA8A828B835F
:20C3E000A312C6CAE50A2403FAE4350BFB02C5CC850C82850D83E02404F07C047D007900A0
:20C40000AA14AB15122CA202C6A5E5104511600302C63E12C6D7FEA3E0FF850C82850D8346
:20C420007404F0EE850A82850B83F0EF851482851583F07403120ECDEEFAEFFB1222A08AE7
:20C440000E8B0FEA450F700302C4E88A828B83A3A312B1017401120EBD8810891178101293
:20C4600010EA7405120EB31211017CFF7DFF1222A67404120E7D8B11EA45117033850E82D8
:20C48000850F8312C6CE1210EA850E82850F83A31211017C027D007AAD7BA91220D8740418
:20C4A000120E7DE9700A7401120EB374FFF0A3F08E828F83E064027039750E02750F0078AC
:20C4C0000E1210EA8E828F83A312C6CAE50A2404FAE4350BFB122C8A7402120E7D850C82BD
:20C4E000850D83E0240280097401120EB3EEF0A3EFF07401120EB312C6BC7401120EB312BA
:20C50000C6B302C638E5104511600302C63E850E82850F8312C8D4AA18AB19122B94850C2C
:20C5200082850D837402F0850A82850B83EAF0851482851583EB02C63BE51045116003022A
:20C54000C63E12C6D7F8A3E0F9850C82850D837402F0E8850A82850B83F0E985148285158C
:20C560008302C63B850E82850F8312B736122C84EAFAF8C39510E49511405CE8651045112B
:20C5800070047A008021851A82851B83E0FCE5102CFCE43511FDC3EC98ED94005003E0802D
:20C5A00005E510CAC39AFAEA850C82850D83F08A0C750D00780C1210EA850E82850F83E0AA
:20C5C0002510FCA3E03511FDAA0AAB0B122C8A7402120E7D02C6A575120702C6A5E510457D
:20C5E00011705B850E82850F8312C811850C82850D837407F08882898312C6B412C6ACE0AF
:20C60000851482851583F0E82402FAE439FB8A828B8312C6BC8A828B8312C6B3A3A312AC7B
:20C620009312C6C1F0E82405F85001098882898312C6C1A312C6FBA3A3A3A3F0806775126C
:20C640000B8062741D120EB312B73612238A8A828B83E5824583604A12C811880E890FE8D7
:20C66000450F603E7425120EB3E0F51278121210EE78101210EA780C1210EA780A1210EA29
:20C680007407120EB3E0F9EEFCEFFDAA18AB19850E82850F83120ED57407120E7DE9F512EE
:20C6A000800375120EA912740502B9F9F088828983A322A3E0850A82850B832212C702F01B
:20C6C0002212C702A3A3229002EE12C8DB22E0F510751100781022850E82850F8312BB9CF4
:20C6E000E022E0FAA3E0F8E4C8F9EA2822F08A828B83E0F50C750D00780C2212C6AC12C79A
:20C700000222E0850A82850B83A3A32274EE120ED774FE120E678A0A8B0BECFEEDFF890CA2
:20C72000AC1AAD1BEEFAEFFB1222A08A0E8B0FEA450F700302C7F4851A82851B8312B736E2
:20C7400012238A8A828B83E5824583700302C7EFA3A312C81188108911E84511700302C7C9
:20C76000EF7414120EB3E0F512A3E0F513E50CF50D780D1210EE7419120EB3121101781267
:20C780001210EA741B120EB3E0F9AC0EAD0FAA0AAB0B851082851183120ED57405120E7D37
:20C7A000E9F50D705274FE650C604C850E82850F83E06402704112C803FAA3E0F9EAF87471
:20C7C00002687003742969702E85128285138312C6E2F50EE439F50F780E1210EAEEFCEF5B
:20C7E000FDAA0AAB0B1224027402120E7D8008750D0E8003750D01A90D7402120E7D7F0A17
:20C80000020FA9A312C81588828983E0228E828F8312C81522E0F8A3E0F92274F2120ED7AE
:20C8200074FE120E67EAFEEBFF890C7401650C60147402650C600302C8CA79011225F4E9D2
:20C84000600302C8CAEEFAEFFB1223D8EA4B60031223DEA81AA91B880A890B780A1210EA1D
:20C86000750A02750B00780A1210EA750AA7750BA9780A1210EA7CFF7DFF7A017B0012222B
:20C880009A7406120E7D8038850A82850B83A3A3A3A3A3A312C8D4EEFAEFFB122B82E4F521
:20C8A0000EF50F780E1210EA7402120EB31211017CFF7DFFAA0AAB0B1222A67404120E7D17
:20C8C0008A0A8B0BE50A450B70BE7402120E7D7F06020FA912BB9C12C8DB22E0FCA3E0FDD3
:20C8E0002274F4120ED78A0A8B0BECFEEDFF901506E0F4604B7A097B00122CAEEA4B6040CE
:20C900008A828B8374B1F0A3E412C943F08A828B83A3A3E50AF0A3E50B12C943A3EEF0A33F
:20C92000EFF0740C120EB312C8118A828B83A3A3A3A3A3A3A312BD8D901506E0F9122CBA73
:20C9400002ACC8F08A828B83A3A3A3A322C082C0839061907404F0A37448F0A37402F09053
:20C9600061807440F09061BC7403F09061877419F0906265741BF0906249E0C394139061DD
:20C980009C40107409F09060667401F090619F7428800D740BF0906066E4F090619F742C01
:20C9A000F012CB387009C291900379746780059003797461F012CB89902E14E493F4600660
:20C9C000E493F91226D8790512299002CB97C082C083E9540FF9906185E0696012E5C65430
:20C9E000B84441F5C6E59E5447644170F8E9F053C6B8E59E544770FA02CB97C082C083A851
:20CA0000A853A87E906181E412D7FDC2BA539AFEC289759B00C2C275E90075910075BF00DB
:20CA200075A91175B905906181F0A374C0F0A3E4F0D2BA439A0174805842A802CB97F0A35D
:20CA4000F002CB97C082C08374F8120E6790037712DBDC700302CB30900377E054406017D2
:20CA60007908AA1AAB1B1227C8AA1AAB1B122462900377E054BFF0E054806010790C7A4038
:20CA80007B051227C8900377E0547FF0E0A2E0501E12CB387009C2919003797467800590BB
:20CAA00003797461F0122468900377E054FEF0E05402601E12CB7C7009D291900379747191
:20CAC0008005900379746AF0122468900377E054FDF0E054046010902E1012CB8C12246EAB
:20CAE000900377E054FBF0E054086010902E1112CB8C12246E900377E054F7F0E0541060BC
:20CB00000D12CB8912246E900377E054EFF0E05420600A12246E900377E054DFF0A3E0549B
:20CB200001600D1226F6122474900378E054FEF07408120E7D02CB9790619A12CD8990057D
:20CB40001AE0640122C082C083E96005146017802912CB387009C2919003797467801A905B
:20CB600003797461801312CB7C7009D29190037974718005900379746AF0801B90619A1214
:20CB8000CD7B90051AE0640122902E12E493906186F022A2E092AFD083D082020B1174EA83
:20CBA000120ED774F4120E6790A918AC1AAD1B7404120D7A902E1093F4600302CD10907800
:20CBC00008E0C39402500302CCF490A8FE7404120ECD7408120D7AA81AA91B881689177417
:20CBE00004120EBD880A890BAE0AAF0B7512FF7513FF7510FF7C00750E48750F78801274E2
:20CC0000086C700302CC8A74096C607E740A6C6079850E82850F83780A120D2B8E828F8331
:20CC2000A90BE50CC9F888147418780A120C6CE514450AF8C3E098A3E099850E82850F8397
:20CC4000780A120D2B40188E828F837418780A120C6CE514450AF8E0C398F8A3E0801A74F2
:20CC600018780A120C6CE514450AFAE9FB8E828F8312D8A3EAC398F8EB99F9C3E89512E9C6
:20CC800095135006881289138C100CE50E2404F50E5002050FECC39413500302CBFF74FF4C
:20CCA0006512700474FF6513602485100A7402780A120E547448250AF5827478350BF58309
:20CCC000780A120D2B851682851783E50AF0EE2402FE50010F851682851783A3858216857A
:20CCE0008317740C120EB3E5826E7003E5836F600302CBEC750A01750B00780A1210EA740A
:20CD000002120ECD7A847B0B122BE27402120E7D740C120E7D7F0E020FA9C082C083906194
:20CD2000AE7468F0A3746AF090624574FBF0A304F053F4FD43FE0290051A7401F09061A0AF
:20CD4000E0643A90619A701912CD89740164017009C2919003797467801E9003797461804D
:20CD60001712CD7B740164017009D29190037974718005900379746A02CA40743FF0A37466
:20CD80005AF09061A0747FF0227433F0A37455F09061A0743AF0227F04020FA9C082C083AD
:20CDA00075E1F19004CFE0605114600914605514604D1470541227029004BEE0F97ABF7B3F
:20CDC0000412292490A91C120D4912295A90A968120D491229309004D0E0F912293C7901FC
:20CDE00012298412CEBB241AF582E438F583741AF0A37427F0790002CB9712270880B9127B
:20CE0000270E80B412271480AF791280EA74F4120ED775D90D9004C5E0A2E0E4331313F88E
:20CE200012CFF3484401F5D97582BF75830412CFFD7004E583640470F57582C675830412BF
:20CE4000D13CE58264CC7004E583640470F175E1959004C5E0F97AC67B0412292A90152A79
:20CE600074AEF0A3742612CF3212CF7C12CF7312D0B69004CFE064019004BC700B12CEC4F0
:20CE8000120D2B90A920800912CEC4120D2B90A924780A120CB790A958780A120D0512CEAD
:20CEA000BB12CF6A780A120D3A12CEBB12CF617413F09003757402F002CD979004BCE0F841
:20CEC000A3E0C82212DB4B780A2274F7120ED712CFE3F5D97582BF75830412CFFD7004E52C
:20CEE00083640470F59004D5E0600A78D67904FA12CFD7DAFB12D08412CFFD7004E5836459
:20CF00000470F59004F5E0600A78F67904FA12CFD7DAFB75E19590152A74BAF0A37426123C
:20CF2000CF3212CF3C7412F09003757401F0FF020FA912D09F74B4F0A374262212CF7C12D0
:20CF4000CF7312D0BA9004BCE0F8A3E0C812CF6A74FF12D7EB9004BCE0F8A3E0C812CF6139
:20CF6000222414F582E438F58322240EF582E438F58322F0A374CCF0A374262212CF802226
:20CF800012CF8422F0A37428F0A374282274F7120ED712CFE34402F5D97582BF758304128C
:20CFA000CFFD7004E583640470F59004D5E0600A78D67904FA12CFD7DAFB75E19590152A3D
:20CFC00012D005F0A312D00512CF3F7414F09003757404F002D3388882898312D140A88278
:20CFE000A983229004D512CFEA22E02407F5D912CFF3229004BEE0C4333354C02212D14009
:20D00000E58264C52274C612D01212D012F0A3742622F0A37426F0A374C62274F7120ED76F
:20D0200012CFE34406F5D97582BF75830412CFFD7004E583640470F59004D5E0600A78D6DA
:20D040007904FA12CFD7DAFB12D08412CFFD7004E583640470F59004F5E0600A78F6790421
:20D06000FA12CFD7DAFB75E19590152A74C0F0A3742612D09512CF3C7415F0900375740382
:20D08000F002D3389004F512CFEA4404F5D97582BF7583042212D09F7428F0A374282212D5
:20D0A000D0A32212D0B07428F0A3742812D0B02212CF84F0A32212D0BA22F0901538742889
:20D0C000F0A3742812D0A37428F0A3742812CF80F022C082C08312CEBB2406F582E438F58C
:20D0E00083E402CA3E74F7120ED79003A312D89574A528F8740339F9E82405FAE439FB8A19
:20D10000828B8312D95888828983A3A3A3A3A3A3A3A3A3ECF0A3ED12D135A3A3A3A3A3A315
